{
  "_format": "hh-sol-artifact-1",
  "contractName": "Ticket",
  "sourceName": "contracts/Ticket.sol",
  "abi": [
    {
      "inputs": [
        {
          "internalType": "string",
          "name": "_name",
          "type": "string"
        },
        {
          "internalType": "string",
          "name": "_symbol",
          "type": "string"
        },
        {
          "internalType": "address",
          "name": "_airnodeRrp",
          "type": "address"
        },
        {
          "internalType": "uint256[]",
          "name": "_randomChanceToIndex",
          "type": "uint256[]"
        },
        {
          "internalType": "address[]",
          "name": "_payees",
          "type": "address[]"
        },
        {
          "internalType": "uint256[]",
          "name": "_shares",
          "type": "uint256[]"
        },
        {
          "internalType": "address",
          "name": "_aggregatorInterface",
          "type": "address"
        },
        {
          "internalType": "string",
          "name": "_uri",
          "type": "string"
        }
      ],
      "stateMutability": "nonpayable",
      "type": "constructor"
    },
    {
      "anonymous": false,
      "inputs": [
        {
          "indexed": true,
          "internalType": "address",
          "name": "account",
          "type": "address"
        },
        {
          "indexed": true,
          "internalType": "address",
          "name": "operator",
          "type": "address"
        },
        {
          "indexed": false,
          "internalType": "bool",
          "name": "approved",
          "type": "bool"
        }
      ],
      "name": "ApprovalForAll",
      "type": "event"
    },
    {
      "anonymous": false,
      "inputs": [
        {
          "indexed": true,
          "internalType": "contract IERC20",
          "name": "token",
          "type": "address"
        },
        {
          "indexed": false,
          "internalType": "address",
          "name": "to",
          "type": "address"
        },
        {
          "indexed": false,
          "internalType": "uint256",
          "name": "amount",
          "type": "uint256"
        }
      ],
      "name": "ERC20PaymentReleased",
      "type": "event"
    },
    {
      "anonymous": false,
      "inputs": [
        {
          "indexed": true,
          "internalType": "address",
          "name": "previousOwner",
          "type": "address"
        },
        {
          "indexed": true,
          "internalType": "address",
          "name": "newOwner",
          "type": "address"
        }
      ],
      "name": "OwnershipTransferred",
      "type": "event"
    },
    {
      "anonymous": false,
      "inputs": [
        {
          "indexed": false,
          "internalType": "address",
          "name": "account",
          "type": "address"
        },
        {
          "indexed": false,
          "internalType": "uint256",
          "name": "shares",
          "type": "uint256"
        }
      ],
      "name": "PayeeAdded",
      "type": "event"
    },
    {
      "anonymous": false,
      "inputs": [
        {
          "indexed": false,
          "internalType": "address",
          "name": "from",
          "type": "address"
        },
        {
          "indexed": false,
          "internalType": "uint256",
          "name": "amount",
          "type": "uint256"
        }
      ],
      "name": "PaymentReceived",
      "type": "event"
    },
    {
      "anonymous": false,
      "inputs": [
        {
          "indexed": false,
          "internalType": "address",
          "name": "to",
          "type": "address"
        },
        {
          "indexed": false,
          "internalType": "uint256",
          "name": "amount",
          "type": "uint256"
        }
      ],
      "name": "PaymentReleased",
      "type": "event"
    },
    {
      "anonymous": false,
      "inputs": [
        {
          "indexed": true,
          "internalType": "bytes32",
          "name": "requestId",
          "type": "bytes32"
        },
        {
          "indexed": true,
          "internalType": "address",
          "name": "sender",
          "type": "address"
        }
      ],
      "name": "RequestNumbers",
      "type": "event"
    },
    {
      "anonymous": false,
      "inputs": [
        {
          "indexed": true,
          "internalType": "bytes32",
          "name": "requestId",
          "type": "bytes32"
        },
        {
          "indexed": true,
          "internalType": "uint256",
          "name": "conditionId",
          "type": "uint256"
        }
      ],
      "name": "RequestRandomnessFulfilled",
      "type": "event"
    },
    {
      "anonymous": false,
      "inputs": [
        {
          "indexed": false,
          "internalType": "address",
          "name": "owner",
          "type": "address"
        },
        {
          "indexed": false,
          "internalType": "uint256",
          "name": "amount",
          "type": "uint256"
        }
      ],
      "name": "TicketOwned",
      "type": "event"
    },
    {
      "anonymous": false,
      "inputs": [
        {
          "indexed": true,
          "internalType": "address",
          "name": "operator",
          "type": "address"
        },
        {
          "indexed": true,
          "internalType": "address",
          "name": "from",
          "type": "address"
        },
        {
          "indexed": true,
          "internalType": "address",
          "name": "to",
          "type": "address"
        },
        {
          "indexed": false,
          "internalType": "uint256[]",
          "name": "ids",
          "type": "uint256[]"
        },
        {
          "indexed": false,
          "internalType": "uint256[]",
          "name": "values",
          "type": "uint256[]"
        }
      ],
      "name": "TransferBatch",
      "type": "event"
    },
    {
      "anonymous": false,
      "inputs": [
        {
          "indexed": true,
          "internalType": "address",
          "name": "operator",
          "type": "address"
        },
        {
          "indexed": true,
          "internalType": "address",
          "name": "from",
          "type": "address"
        },
        {
          "indexed": true,
          "internalType": "address",
          "name": "to",
          "type": "address"
        },
        {
          "indexed": false,
          "internalType": "uint256",
          "name": "id",
          "type": "uint256"
        },
        {
          "indexed": false,
          "internalType": "uint256",
          "name": "value",
          "type": "uint256"
        }
      ],
      "name": "TransferSingle",
      "type": "event"
    },
    {
      "anonymous": false,
      "inputs": [
        {
          "indexed": false,
          "internalType": "string",
          "name": "value",
          "type": "string"
        },
        {
          "indexed": true,
          "internalType": "uint256",
          "name": "id",
          "type": "uint256"
        }
      ],
      "name": "URI",
      "type": "event"
    },
    {
      "inputs": [],
      "name": "airnode",
      "outputs": [
        {
          "internalType": "address",
          "name": "",
          "type": "address"
        }
      ],
      "stateMutability": "view",
      "type": "function"
    },
    {
      "inputs": [],
      "name": "airnodeRrp",
      "outputs": [
        {
          "internalType": "contract IAirnodeRrpV0",
          "name": "",
          "type": "address"
        }
      ],
      "stateMutability": "view",
      "type": "function"
    },
    {
      "inputs": [
        {
          "internalType": "address",
          "name": "account",
          "type": "address"
        },
        {
          "internalType": "uint256",
          "name": "id",
          "type": "uint256"
        }
      ],
      "name": "balanceOf",
      "outputs": [
        {
          "internalType": "uint256",
          "name": "",
          "type": "uint256"
        }
      ],
      "stateMutability": "view",
      "type": "function"
    },
    {
      "inputs": [
        {
          "internalType": "address[]",
          "name": "accounts",
          "type": "address[]"
        },
        {
          "internalType": "uint256[]",
          "name": "ids",
          "type": "uint256[]"
        }
      ],
      "name": "balanceOfBatch",
      "outputs": [
        {
          "internalType": "uint256[]",
          "name": "",
          "type": "uint256[]"
        }
      ],
      "stateMutability": "view",
      "type": "function"
    },
    {
      "inputs": [
        {
          "internalType": "uint256",
          "name": "amount",
          "type": "uint256"
        }
      ],
      "name": "buyTickets",
      "outputs": [],
      "stateMutability": "payable",
      "type": "function"
    },
    {
      "inputs": [],
      "name": "endpointIdUint256",
      "outputs": [
        {
          "internalType": "bytes32",
          "name": "",
          "type": "bytes32"
        }
      ],
      "stateMutability": "view",
      "type": "function"
    },
    {
      "inputs": [
        {
          "internalType": "bytes32",
          "name": "requestId",
          "type": "bytes32"
        },
        {
          "internalType": "bytes",
          "name": "data",
          "type": "bytes"
        }
      ],
      "name": "fulfillUint256",
      "outputs": [],
      "stateMutability": "nonpayable",
      "type": "function"
    },
    {
      "inputs": [],
      "name": "gasCompensation",
      "outputs": [
        {
          "internalType": "uint256",
          "name": "",
          "type": "uint256"
        }
      ],
      "stateMutability": "view",
      "type": "function"
    },
    {
      "inputs": [],
      "name": "getGasCompensationAndBlockFee",
      "outputs": [
        {
          "internalType": "uint256",
          "name": "",
          "type": "uint256"
        }
      ],
      "stateMutability": "view",
      "type": "function"
    },
    {
      "inputs": [],
      "name": "getLatestPrice",
      "outputs": [
        {
          "internalType": "uint256",
          "name": "pricePerTicket",
          "type": "uint256"
        }
      ],
      "stateMutability": "view",
      "type": "function"
    },
    {
      "inputs": [
        {
          "internalType": "address",
          "name": "account",
          "type": "address"
        },
        {
          "internalType": "address",
          "name": "operator",
          "type": "address"
        }
      ],
      "name": "isApprovedForAll",
      "outputs": [
        {
          "internalType": "bool",
          "name": "",
          "type": "bool"
        }
      ],
      "stateMutability": "view",
      "type": "function"
    },
    {
      "inputs": [],
      "name": "maxReward",
      "outputs": [
        {
          "internalType": "uint256",
          "name": "",
          "type": "uint256"
        }
      ],
      "stateMutability": "view",
      "type": "function"
    },
    {
      "inputs": [],
      "name": "maxSupply",
      "outputs": [
        {
          "internalType": "uint256",
          "name": "",
          "type": "uint256"
        }
      ],
      "stateMutability": "view",
      "type": "function"
    },
    {
      "inputs": [],
      "name": "name",
      "outputs": [
        {
          "internalType": "string",
          "name": "",
          "type": "string"
        }
      ],
      "stateMutability": "view",
      "type": "function"
    },
    {
      "inputs": [],
      "name": "nftContract",
      "outputs": [
        {
          "internalType": "address",
          "name": "",
          "type": "address"
        }
      ],
      "stateMutability": "view",
      "type": "function"
    },
    {
      "inputs": [],
      "name": "owner",
      "outputs": [
        {
          "internalType": "address",
          "name": "",
          "type": "address"
        }
      ],
      "stateMutability": "view",
      "type": "function"
    },
    {
      "inputs": [
        {
          "internalType": "uint256",
          "name": "index",
          "type": "uint256"
        }
      ],
      "name": "payee",
      "outputs": [
        {
          "internalType": "address",
          "name": "",
          "type": "address"
        }
      ],
      "stateMutability": "view",
      "type": "function"
    },
    {
      "inputs": [
        {
          "internalType": "uint256",
          "name": "",
          "type": "uint256"
        }
      ],
      "name": "randomChanceToIndex",
      "outputs": [
        {
          "internalType": "uint256",
          "name": "",
          "type": "uint256"
        }
      ],
      "stateMutability": "view",
      "type": "function"
    },
    {
      "inputs": [
        {
          "internalType": "address",
          "name": "account",
          "type": "address"
        }
      ],
      "name": "releasable",
      "outputs": [
        {
          "internalType": "uint256",
          "name": "",
          "type": "uint256"
        }
      ],
      "stateMutability": "view",
      "type": "function"
    },
    {
      "inputs": [
        {
          "internalType": "contract IERC20",
          "name": "token",
          "type": "address"
        },
        {
          "internalType": "address",
          "name": "account",
          "type": "address"
        }
      ],
      "name": "releasable",
      "outputs": [
        {
          "internalType": "uint256",
          "name": "",
          "type": "uint256"
        }
      ],
      "stateMutability": "view",
      "type": "function"
    },
    {
      "inputs": [
        {
          "internalType": "address payable",
          "name": "account",
          "type": "address"
        }
      ],
      "name": "release",
      "outputs": [],
      "stateMutability": "nonpayable",
      "type": "function"
    },
    {
      "inputs": [
        {
          "internalType": "contract IERC20",
          "name": "token",
          "type": "address"
        },
        {
          "internalType": "address",
          "name": "account",
          "type": "address"
        }
      ],
      "name": "release",
      "outputs": [],
      "stateMutability": "nonpayable",
      "type": "function"
    },
    {
      "inputs": [
        {
          "internalType": "contract IERC20",
          "name": "token",
          "type": "address"
        },
        {
          "internalType": "address",
          "name": "account",
          "type": "address"
        }
      ],
      "name": "released",
      "outputs": [
        {
          "internalType": "uint256",
          "name": "",
          "type": "uint256"
        }
      ],
      "stateMutability": "view",
      "type": "function"
    },
    {
      "inputs": [
        {
          "internalType": "address",
          "name": "account",
          "type": "address"
        }
      ],
      "name": "released",
      "outputs": [
        {
          "internalType": "uint256",
          "name": "",
          "type": "uint256"
        }
      ],
      "stateMutability": "view",
      "type": "function"
    },
    {
      "inputs": [],
      "name": "renounceOwnership",
      "outputs": [],
      "stateMutability": "nonpayable",
      "type": "function"
    },
    {
      "inputs": [
        {
          "internalType": "bytes32",
          "name": "",
          "type": "bytes32"
        }
      ],
      "name": "requestIdToRandomStatus",
      "outputs": [
        {
          "internalType": "uint256",
          "name": "randomNumber",
          "type": "uint256"
        },
        {
          "internalType": "address",
          "name": "sender",
          "type": "address"
        },
        {
          "internalType": "bool",
          "name": "isExist",
          "type": "bool"
        }
      ],
      "stateMutability": "view",
      "type": "function"
    },
    {
      "inputs": [],
      "name": "requestNft",
      "outputs": [
        {
          "internalType": "bytes32",
          "name": "requestId",
          "type": "bytes32"
        }
      ],
      "stateMutability": "payable",
      "type": "function"
    },
    {
      "inputs": [
        {
          "internalType": "address",
          "name": "from",
          "type": "address"
        },
        {
          "internalType": "address",
          "name": "to",
          "type": "address"
        },
        {
          "internalType": "uint256[]",
          "name": "ids",
          "type": "uint256[]"
        },
        {
          "internalType": "uint256[]",
          "name": "amounts",
          "type": "uint256[]"
        },
        {
          "internalType": "bytes",
          "name": "data",
          "type": "bytes"
        }
      ],
      "name": "safeBatchTransferFrom",
      "outputs": [],
      "stateMutability": "nonpayable",
      "type": "function"
    },
    {
      "inputs": [
        {
          "internalType": "address",
          "name": "from",
          "type": "address"
        },
        {
          "internalType": "address",
          "name": "to",
          "type": "address"
        },
        {
          "internalType": "uint256",
          "name": "id",
          "type": "uint256"
        },
        {
          "internalType": "uint256",
          "name": "amount",
          "type": "uint256"
        },
        {
          "internalType": "bytes",
          "name": "data",
          "type": "bytes"
        }
      ],
      "name": "safeTransferFrom",
      "outputs": [],
      "stateMutability": "nonpayable",
      "type": "function"
    },
    {
      "inputs": [
        {
          "internalType": "address",
          "name": "to",
          "type": "address"
        },
        {
          "internalType": "uint256",
          "name": "amount",
          "type": "uint256"
        }
      ],
      "name": "sendReward",
      "outputs": [],
      "stateMutability": "nonpayable",
      "type": "function"
    },
    {
      "inputs": [
        {
          "internalType": "address",
          "name": "operator",
          "type": "address"
        },
        {
          "internalType": "bool",
          "name": "approved",
          "type": "bool"
        }
      ],
      "name": "setApprovalForAll",
      "outputs": [],
      "stateMutability": "nonpayable",
      "type": "function"
    },
    {
      "inputs": [
        {
          "internalType": "uint256",
          "name": "_gasCompensation",
          "type": "uint256"
        }
      ],
      "name": "setGasCompensation",
      "outputs": [],
      "stateMutability": "nonpayable",
      "type": "function"
    },
    {
      "inputs": [
        {
          "internalType": "address",
          "name": "nftContractAddress",
          "type": "address"
        }
      ],
      "name": "setNftCollectionAddress",
      "outputs": [],
      "stateMutability": "nonpayable",
      "type": "function"
    },
    {
      "inputs": [
        {
          "internalType": "address",
          "name": "_airnode",
          "type": "address"
        },
        {
          "internalType": "bytes32",
          "name": "_endpointIdUint256",
          "type": "bytes32"
        },
        {
          "internalType": "address payable",
          "name": "_sponsorWallet",
          "type": "address"
        }
      ],
      "name": "setRequestParameters",
      "outputs": [],
      "stateMutability": "nonpayable",
      "type": "function"
    },
    {
      "inputs": [
        {
          "internalType": "address",
          "name": "account",
          "type": "address"
        }
      ],
      "name": "shares",
      "outputs": [
        {
          "internalType": "uint256",
          "name": "",
          "type": "uint256"
        }
      ],
      "stateMutability": "view",
      "type": "function"
    },
    {
      "inputs": [],
      "name": "sponsorWallet",
      "outputs": [
        {
          "internalType": "address payable",
          "name": "",
          "type": "address"
        }
      ],
      "stateMutability": "view",
      "type": "function"
    },
    {
      "inputs": [
        {
          "internalType": "bytes4",
          "name": "interfaceId",
          "type": "bytes4"
        }
      ],
      "name": "supportsInterface",
      "outputs": [
        {
          "internalType": "bool",
          "name": "",
          "type": "bool"
        }
      ],
      "stateMutability": "view",
      "type": "function"
    },
    {
      "inputs": [],
      "name": "symbol",
      "outputs": [
        {
          "internalType": "string",
          "name": "",
          "type": "string"
        }
      ],
      "stateMutability": "view",
      "type": "function"
    },
    {
      "inputs": [
        {
          "internalType": "contract IERC20",
          "name": "token",
          "type": "address"
        }
      ],
      "name": "totalReleased",
      "outputs": [
        {
          "internalType": "uint256",
          "name": "",
          "type": "uint256"
        }
      ],
      "stateMutability": "view",
      "type": "function"
    },
    {
      "inputs": [],
      "name": "totalReleased",
      "outputs": [
        {
          "internalType": "uint256",
          "name": "",
          "type": "uint256"
        }
      ],
      "stateMutability": "view",
      "type": "function"
    },
    {
      "inputs": [],
      "name": "totalShares",
      "outputs": [
        {
          "internalType": "uint256",
          "name": "",
          "type": "uint256"
        }
      ],
      "stateMutability": "view",
      "type": "function"
    },
    {
      "inputs": [],
      "name": "totalSupply",
      "outputs": [
        {
          "internalType": "uint256",
          "name": "",
          "type": "uint256"
        }
      ],
      "stateMutability": "view",
      "type": "function"
    },
    {
      "inputs": [
        {
          "internalType": "address",
          "name": "newOwner",
          "type": "address"
        }
      ],
      "name": "transferOwnership",
      "outputs": [],
      "stateMutability": "nonpayable",
      "type": "function"
    },
    {
      "inputs": [
        {
          "internalType": "uint256",
          "name": "",
          "type": "uint256"
        }
      ],
      "name": "uri",
      "outputs": [
        {
          "internalType": "string",
          "name": "",
          "type": "string"
        }
      ],
      "stateMutability": "view",
      "type": "function"
    },
    {
      "stateMutability": "payable",
      "type": "receive"
    }
  ],
  "bytecode": "0x60c0604052620186a060a0908152506152086010553480156200002157600080fd5b5060405162006f6238038062006f62833981810160405281019062000047919062000ad2565b858484836200005c81620002be60201b60201c565b506200007d62000071620002da60201b60201c565b620002e260201b60201c565b8051825114620000c4576040517f08c379a0000000000000000000000000000000000000000000000000000000008152600401620000bb9062000cdc565b60405180910390fd5b60008251116200010b576040517f08c379a0000000000000000000000000000000000000000000000000000000008152600401620001029062000d4e565b60405180910390fd5b60005b82518110156200017a576200016483828151811062000132576200013162000d70565b5b602002602001015183838151811062000150576200014f62000d70565b5b6020026020010151620003a860201b60201c565b8080620001719062000dce565b9150506200010e565b5050508073ffffffffffffffffffffffffffffffffffffffff1660808173ffffffffffffffffffffffffffffffffffffffff16815250508073ffffffffffffffffffffffffffffffffffffffff1663addf027c3060016040518363ffffffff1660e01b8152600401620001ef92919062000e4a565b600060405180830381600087803b1580156200020a57600080fd5b505af11580156200021f573d6000803e3d6000fd5b505050505087600c90805190602001906200023c929190620005e2565b5086600d908051906020019062000255929190620005e2565b5081600b60006101000a81548173ffffffffffffffffffffffffffffffffffffffff021916908373ffffffffffffffffffffffffffffffffffffffff16021790555084600e9080519060200190620002af92919062000673565b50505050505050505062001119565b8060029080519060200190620002d6929190620005e2565b5050565b600033905090565b6000600360009054906101000a900473ffffffffffffffffffffffffffffffffffffffff16905081600360006101000a81548173ffffffffffffffffffffffffffffffffffffffff021916908373ffffffffffffffffffffffffffffffffffffffff1602179055508173ffffffffffffffffffffffffffffffffffffffff168173ffffffffffffffffffffffffffffffffffffffff167f8be0079c531659141344cd1fd0a4f28419497f9722a3daafe3b4186f6b6457e060405160405180910390a35050565b600073ffffffffffffffffffffffffffffffffffffffff168273ffffffffffffffffffffffffffffffffffffffff1614156200041b576040517f08c379a0000000000000000000000000000000000000000000000000000000008152600401620004129062000eed565b60405180910390fd5b6000811162000461576040517f08c379a0000000000000000000000000000000000000000000000000000000008152600401620004589062000f5f565b60405180910390fd5b6000600660008473ffffffffffffffffffffffffffffffffffffffff1673ffffffffffffffffffffffffffffffffffffffff1681526020019081526020016000205414620004e6576040517f08c379a0000000000000000000000000000000000000000000000000000000008152600401620004dd9062000ff7565b60405180910390fd5b6008829080600181540180825580915050600190039060005260206000200160009091909190916101000a81548173ffffffffffffffffffffffffffffffffffffffff021916908373ffffffffffffffffffffffffffffffffffffffff16021790555080600660008473ffffffffffffffffffffffffffffffffffffffff1673ffffffffffffffffffffffffffffffffffffffff16815260200190815260200160002081905550806004546200059d919062001019565b6004819055507f40c340f65e17194d14ddddb073d3c9f888e3cb52b5aae0c6c7706b4fbc905fac8282604051620005d692919062001087565b60405180910390a15050565b828054620005f090620010e3565b90600052602060002090601f01602090048101928262000614576000855562000660565b82601f106200062f57805160ff191683800117855562000660565b8280016001018555821562000660579182015b828111156200065f57825182559160200191906001019062000642565b5b5090506200066f9190620006c5565b5090565b828054828255906000526020600020908101928215620006b2579160200282015b82811115620006b157825182559160200191906001019062000694565b5b509050620006c19190620006c5565b5090565b5b80821115620006e0576000816000905550600101620006c6565b5090565b6000604051905090565b600080fd5b600080fd5b600080fd5b600080fd5b6000601f19601f8301169050919050565b7f4e487b7100000000000000000000000000000000000000000000000000000000600052604160045260246000fd5b6200074d8262000702565b810181811067ffffffffffffffff821117156200076f576200076e62000713565b5b80604052505050565b600062000784620006e4565b905062000792828262000742565b919050565b600067ffffffffffffffff821115620007b557620007b462000713565b5b620007c08262000702565b9050602081019050919050565b60005b83811015620007ed578082015181840152602081019050620007d0565b83811115620007fd576000848401525b50505050565b60006200081a620008148462000797565b62000778565b905082815260208101848484011115620008395762000838620006fd565b5b62000846848285620007cd565b509392505050565b600082601f830112620008665762000865620006f8565b5b81516200087884826020860162000803565b91505092915050565b600073ffffffffffffffffffffffffffffffffffffffff82169050919050565b6000620008ae8262000881565b9050919050565b620008c081620008a1565b8114620008cc57600080fd5b50565b600081519050620008e081620008b5565b92915050565b600067ffffffffffffffff82111562000904576200090362000713565b5b602082029050602081019050919050565b600080fd5b6000819050919050565b6200092f816200091a565b81146200093b57600080fd5b50565b6000815190506200094f8162000924565b92915050565b60006200096c6200096684620008e6565b62000778565b9050808382526020820190506020840283018581111562000992576200099162000915565b5b835b81811015620009bf5780620009aa88826200093e565b84526020840193505060208101905062000994565b5050509392505050565b600082601f830112620009e157620009e0620006f8565b5b8151620009f384826020860162000955565b91505092915050565b600067ffffffffffffffff82111562000a1a5762000a1962000713565b5b602082029050602081019050919050565b600062000a4262000a3c84620009fc565b62000778565b9050808382526020820190506020840283018581111562000a685762000a6762000915565b5b835b8181101562000a95578062000a808882620008cf565b84526020840193505060208101905062000a6a565b5050509392505050565b600082601f83011262000ab75762000ab6620006f8565b5b815162000ac984826020860162000a2b565b91505092915050565b600080600080600080600080610100898b03121562000af65762000af5620006ee565b5b600089015167ffffffffffffffff81111562000b175762000b16620006f3565b5b62000b258b828c016200084e565b985050602089015167ffffffffffffffff81111562000b495762000b48620006f3565b5b62000b578b828c016200084e565b975050604062000b6a8b828c01620008cf565b965050606089015167ffffffffffffffff81111562000b8e5762000b8d620006f3565b5b62000b9c8b828c01620009c9565b955050608089015167ffffffffffffffff81111562000bc05762000bbf620006f3565b5b62000bce8b828c0162000a9f565b94505060a089015167ffffffffffffffff81111562000bf25762000bf1620006f3565b5b62000c008b828c01620009c9565b93505060c062000c138b828c01620008cf565b92505060e089015167ffffffffffffffff81111562000c375762000c36620006f3565b5b62000c458b828c016200084e565b9150509295985092959890939650565b600082825260208201905092915050565b7f5061796d656e7453706c69747465723a2070617965657320616e64207368617260008201527f6573206c656e677468206d69736d617463680000000000000000000000000000602082015250565b600062000cc460328362000c55565b915062000cd18262000c66565b604082019050919050565b6000602082019050818103600083015262000cf78162000cb5565b9050919050565b7f5061796d656e7453706c69747465723a206e6f20706179656573000000000000600082015250565b600062000d36601a8362000c55565b915062000d438262000cfe565b602082019050919050565b6000602082019050818103600083015262000d698162000d27565b9050919050565b7f4e487b7100000000000000000000000000000000000000000000000000000000600052603260045260246000fd5b7f4e487b7100000000000000000000000000000000000000000000000000000000600052601160045260246000fd5b600062000ddb826200091a565b91507fffffffffffffffffffffffffffffffffffffffffffffffffffffffffffffffff82141562000e115762000e1062000d9f565b5b600182019050919050565b62000e2781620008a1565b82525050565b60008115159050919050565b62000e448162000e2d565b82525050565b600060408201905062000e61600083018562000e1c565b62000e70602083018462000e39565b9392505050565b7f5061796d656e7453706c69747465723a206163636f756e74206973207468652060008201527f7a65726f20616464726573730000000000000000000000000000000000000000602082015250565b600062000ed5602c8362000c55565b915062000ee28262000e77565b604082019050919050565b6000602082019050818103600083015262000f088162000ec6565b9050919050565b7f5061796d656e7453706c69747465723a20736861726573206172652030000000600082015250565b600062000f47601d8362000c55565b915062000f548262000f0f565b602082019050919050565b6000602082019050818103600083015262000f7a8162000f38565b9050919050565b7f5061796d656e7453706c69747465723a206163636f756e7420616c726561647960008201527f2068617320736861726573000000000000000000000000000000000000000000602082015250565b600062000fdf602b8362000c55565b915062000fec8262000f81565b604082019050919050565b60006020820190508181036000830152620010128162000fd0565b9050919050565b600062001026826200091a565b915062001033836200091a565b9250827fffffffffffffffffffffffffffffffffffffffffffffffffffffffffffffffff038211156200106b576200106a62000d9f565b5b828201905092915050565b62001081816200091a565b82525050565b60006040820190506200109e600083018562000e1c565b620010ad602083018462001076565b9392505050565b7f4e487b7100000000000000000000000000000000000000000000000000000000600052602260045260246000fd5b60006002820490506001821680620010fc57607f821691505b60208210811415620011135762001112620010b4565b5b50919050565b60805160a051615e076200115b60003960008181610d2b0152818161112c015261217101526000818161125a015281816118f40152611dac0152615e076000f3fe60806040526004361061026a5760003560e01c806384f5c2d211610144578063bf90fb4e116100b6578063d5abeb011161007a578063d5abeb01146109b0578063d79779b2146109db578063e33b7de314610a18578063e985e9c514610a43578063f242432a14610a80578063f2fde38b14610aa9576102b1565b8063bf90fb4e146108b7578063c45ac050146108e2578063ce7c2ac21461091f578063d0029b511461095c578063d56d229d14610985576102b1565b80639852595c116101085780639852595c1461078c578063a1487790146107c9578063a22cb46514610808578063a36ff4d814610831578063a3f8eace1461085c578063aa15249114610899576102b1565b806384f5c2d2146106a35780638b83209b146106ce5780638da5cb5b1461070b5780638e15f4731461073657806395d89b4114610761576102b1565b80633a98ef39116101dd578063530fc064116101a1578063530fc064146105a557806366a78e6c146105e2578063715018a61461060d57806371bab666146106245780637bdf25251461064f578063805e327514610678576102b1565b80633a98ef39146104ae578063406072a9146104d957806348b75044146105165780634e1273f41461053f578063501f5eb81461057c576102b1565b80630e89341c1161022f5780630e89341c146103af57806318160ddd146103ec57806319165587146104175780632eb2c2d6146104405780632f366637146104695780633718d90a14610485576102b1565b8062fdd58e146102b657806301ffc9a7146102f357806306fdde031461033057806307420a411461035b57806307b9fc5714610384576102b1565b366102b1577f6ef95f06320e7a25a04a175ca677b7052bdd97131872c2192525a629f51be770610298610ad2565b346040516102a7929190613a12565b60405180910390a1005b600080fd5b3480156102c257600080fd5b506102dd60048036038101906102d89190613aa7565b610ada565b6040516102ea9190613ae7565b60405180910390f35b3480156102ff57600080fd5b5061031a60048036038101906103159190613b5a565b610ba3565b6040516103279190613ba2565b60405180910390f35b34801561033c57600080fd5b50610345610c85565b6040516103529190613c56565b60405180910390f35b34801561036757600080fd5b50610382600480360381019061037d9190613aa7565b610d13565b005b34801561039057600080fd5b50610399610e5b565b6040516103a69190613c91565b60405180910390f35b3480156103bb57600080fd5b506103d660048036038101906103d19190613cac565b610e61565b6040516103e39190613c56565b60405180910390f35b3480156103f857600080fd5b50610401610ef5565b60405161040e9190613ae7565b60405180910390f35b34801561042357600080fd5b5061043e60048036038101906104399190613d17565b610efb565b005b34801561044c57600080fd5b5061046760048036038101906104629190613f41565b61107b565b005b610483600480360381019061047e9190613cac565b61111c565b005b34801561049157600080fd5b506104ac60048036038101906104a79190614097565b611258565b005b3480156104ba57600080fd5b506104c36114aa565b6040516104d09190613ae7565b60405180910390f35b3480156104e557600080fd5b5061050060048036038101906104fb9190614135565b6114b4565b60405161050d9190613ae7565b60405180910390f35b34801561052257600080fd5b5061053d60048036038101906105389190614135565b61153b565b005b34801561054b57600080fd5b5061056660048036038101906105619190614238565b61174f565b604051610573919061436e565b60405180910390f35b34801561058857600080fd5b506105a3600480360381019061059e9190614390565b611868565b005b3480156105b157600080fd5b506105cc60048036038101906105c79190613cac565b6118b4565b6040516105d99190613ae7565b60405180910390f35b3480156105ee57600080fd5b506105f76118d8565b6040516106049190613ae7565b60405180910390f35b34801561061957600080fd5b506106226118de565b005b34801561063057600080fd5b506106396118f2565b604051610646919061441c565b60405180910390f35b34801561065b57600080fd5b5061067660048036038101906106719190614437565b611916565b005b34801561068457600080fd5b5061068d6119a4565b60405161069a9190613ae7565b60405180910390f35b3480156106af57600080fd5b506106b86119b9565b6040516106c59190613ae7565b60405180910390f35b3480156106da57600080fd5b506106f560048036038101906106f09190613cac565b6119bf565b604051610702919061448a565b60405180910390f35b34801561071757600080fd5b50610720611a07565b60405161072d919061448a565b60405180910390f35b34801561074257600080fd5b5061074b611a31565b6040516107589190613ae7565b60405180910390f35b34801561076d57600080fd5b50610776611b05565b6040516107839190613c56565b60405180910390f35b34801561079857600080fd5b506107b360048036038101906107ae9190614390565b611b93565b6040516107c09190613ae7565b60405180910390f35b3480156107d557600080fd5b506107f060048036038101906107eb91906144a5565b611bdc565b6040516107ff939291906144d2565b60405180910390f35b34801561081457600080fd5b5061082f600480360381019061082a9190614535565b611c33565b005b34801561083d57600080fd5b50610846611c49565b604051610853919061448a565b60405180910390f35b34801561086857600080fd5b50610883600480360381019061087e9190614390565b611c6f565b6040516108909190613ae7565b60405180910390f35b6108a1611ca2565b6040516108ae9190613c91565b60405180910390f35b3480156108c357600080fd5b506108cc61200a565b6040516108d99190614584565b60405180910390f35b3480156108ee57600080fd5b5061090960048036038101906109049190614135565b612030565b6040516109169190613ae7565b60405180910390f35b34801561092b57600080fd5b5061094660048036038101906109419190614390565b6120ee565b6040516109539190613ae7565b60405180910390f35b34801561096857600080fd5b50610983600480360381019061097e9190613cac565b612137565b005b34801561099157600080fd5b5061099a612149565b6040516109a7919061448a565b60405180910390f35b3480156109bc57600080fd5b506109c561216f565b6040516109d29190613ae7565b60405180910390f35b3480156109e757600080fd5b50610a0260048036038101906109fd919061459f565b612193565b604051610a0f9190613ae7565b60405180910390f35b348015610a2457600080fd5b50610a2d6121dc565b604051610a3a9190613ae7565b60405180910390f35b348015610a4f57600080fd5b50610a6a6004803603810190610a6591906145cc565b6121e6565b604051610a779190613ba2565b60405180910390f35b348015610a8c57600080fd5b50610aa76004803603810190610aa2919061460c565b61227a565b005b348015610ab557600080fd5b50610ad06004803603810190610acb9190614390565b61231b565b005b600033905090565b60008073ffffffffffffffffffffffffffffffffffffffff168373ffffffffffffffffffffffffffffffffffffffff161415610b4b576040517f08c379a0000000000000000000000000000000000000000000000000000000008152600401610b4290614715565b60405180910390fd5b60008083815260200190815260200160002060008473ffffffffffffffffffffffffffffffffffffffff1673ffffffffffffffffffffffffffffffffffffffff16815260200190815260200160002054905092915050565b60007fd9b67a26000000000000000000000000000000000000000000000000000000007bffffffffffffffffffffffffffffffffffffffffffffffffffffffff1916827bffffffffffffffffffffffffffffffffffffffffffffffffffffffff19161480610c6e57507f0e89341c000000000000000000000000000000000000000000000000000000007bffffffffffffffffffffffffffffffffffffffffffffffffffffffff1916827bffffffffffffffffffffffffffffffffffffffffffffffffffffffff1916145b80610c7e5750610c7d8261239f565b5b9050919050565b600c8054610c9290614764565b80601f0160208091040260200160405190810160405280929190818152602001828054610cbe90614764565b8015610d0b5780601f10610ce057610100808354040283529160200191610d0b565b820191906000526020600020905b815481529060010190602001808311610cee57829003601f168201915b505050505081565b610d1b612409565b80601154610d2991906147c5565b7f00000000000000000000000000000000000000000000000000000000000000001015610d8b576040517f08c379a0000000000000000000000000000000000000000000000000000000008152600401610d8290614867565b60405180910390fd5b806010541015610dd0576040517f08c379a0000000000000000000000000000000000000000000000000000000008152600401610dc7906148d3565b60405180910390fd5b610dec8260018360405180602001604052806000815250612487565b8060116000828254610dfe91906147c5565b925050819055508060106000828254610e1791906148f3565b925050819055507fb21f5a076eb7c2a94472b9de877a87e385c679f381c3d2f4d8b231a60e91415f3382604051610e4f929190613a12565b60405180910390a15050565b60145481565b606060028054610e7090614764565b80601f0160208091040260200160405190810160405280929190818152602001828054610e9c90614764565b8015610ee95780601f10610ebe57610100808354040283529160200191610ee9565b820191906000526020600020905b815481529060010190602001808311610ecc57829003601f168201915b50505050509050919050565b60115481565b6000600660008373ffffffffffffffffffffffffffffffffffffffff1673ffffffffffffffffffffffffffffffffffffffff1681526020019081526020016000205411610f7d576040517f08c379a0000000000000000000000000000000000000000000000000000000008152600401610f7490614999565b60405180910390fd5b6000610f8882611c6f565b90506000811415610fce576040517f08c379a0000000000000000000000000000000000000000000000000000000008152600401610fc590614a2b565b60405180910390fd5b8060056000828254610fe091906147c5565b9250508190555080600760008473ffffffffffffffffffffffffffffffffffffffff1673ffffffffffffffffffffffffffffffffffffffff1681526020019081526020016000206000828254019250508190555061103e8282612638565b7fdf20fd1e76bc69d672e4814fafb2c449bba3a5369d8359adf9e05e6fde87b056828260405161106f929190614a6c565b60405180910390a15050565b611083610ad2565b73ffffffffffffffffffffffffffffffffffffffff168573ffffffffffffffffffffffffffffffffffffffff1614806110c957506110c8856110c3610ad2565b6121e6565b5b611108576040517f08c379a00000000000000000000000000000000000000000000000000000000081526004016110ff90614b07565b60405180910390fd5b611115858585858561272c565b5050505050565b8060115461112a91906147c5565b7f0000000000000000000000000000000000000000000000000000000000000000101561118c576040517f08c379a000000000000000000000000000000000000000000000000000000000815260040161118390614867565b60405180910390fd5b6000611196611a31565b905081816111a49190614b27565b3410156111e6576040517f08c379a00000000000000000000000000000000000000000000000000000000081526004016111dd90614bcd565b60405180910390fd5b6112023360018460405180602001604052806000815250612487565b816011600082825461121491906147c5565b925050819055507fb21f5a076eb7c2a94472b9de877a87e385c679f381c3d2f4d8b231a60e91415f338360405161124c929190613a12565b60405180910390a15050565b7f000000000000000000000000000000000000000000000000000000000000000073ffffffffffffffffffffffffffffffffffffffff163373ffffffffffffffffffffffffffffffffffffffff16146112e6576040517f08c379a00000000000000000000000000000000000000000000000000000000081526004016112dd90614c39565b60405180910390fd5b600115156016600085815260200190815260200160002060010160149054906101000a900460ff16151514611350576040517f08c379a000000000000000000000000000000000000000000000000000000000815260040161134790614ca5565b60405180910390fd5b600082828101906113619190613cac565b905060006001612710836113759190614cf4565b61137f91906147c5565b905080601660008781526020019081526020016000206000018190555060006113a782612a4e565b90506000600f60009054906101000a900473ffffffffffffffffffffffffffffffffffffffff1690508073ffffffffffffffffffffffffffffffffffffffff1663dbc57c0f601660008a815260200190815260200160002060010160009054906101000a900473ffffffffffffffffffffffffffffffffffffffff16846040518363ffffffff1660e01b8152600401611441929190613a12565b600060405180830381600087803b15801561145b57600080fd5b505af115801561146f573d6000803e3d6000fd5b5050505081877f258e8aab35e09293c36892d6c2e2ee63509c0ba72c3437d609e4f30109d3f16c60405160405180910390a350505050505050565b6000600454905090565b6000600a60008473ffffffffffffffffffffffffffffffffffffffff1673ffffffffffffffffffffffffffffffffffffffff16815260200190815260200160002060008373ffffffffffffffffffffffffffffffffffffffff1673ffffffffffffffffffffffffffffffffffffffff16815260200190815260200160002054905092915050565b6000600660008373ffffffffffffffffffffffffffffffffffffffff1673ffffffffffffffffffffffffffffffffffffffff16815260200190815260200160002054116115bd576040517f08c379a00000000000000000000000000000000000000000000000000000000081526004016115b490614999565b60405180910390fd5b60006115c98383612030565b9050600081141561160f576040517f08c379a000000000000000000000000000000000000000000000000000000000815260040161160690614a2b565b60405180910390fd5b80600960008573ffffffffffffffffffffffffffffffffffffffff1673ffffffffffffffffffffffffffffffffffffffff168152602001908152602001600020600082825461165e91906147c5565b9250508190555080600a60008573ffffffffffffffffffffffffffffffffffffffff1673ffffffffffffffffffffffffffffffffffffffff16815260200190815260200160002060008473ffffffffffffffffffffffffffffffffffffffff1673ffffffffffffffffffffffffffffffffffffffff168152602001908152602001600020600082825401925050819055506116fa838383612ac1565b8273ffffffffffffffffffffffffffffffffffffffff167f3be5b7a71e84ed12875d241991c70855ac5817d847039e17a9d895c1ceb0f18a8383604051611742929190613a12565b60405180910390a2505050565b60608151835114611795576040517f08c379a000000000000000000000000000000000000000000000000000000000815260040161178c90614d97565b60405180910390fd5b6000835167ffffffffffffffff8111156117b2576117b1613d49565b5b6040519080825280602002602001820160405280156117e05781602001602082028036833780820191505090505b50905060005b845181101561185d5761182d85828151811061180557611804614db7565b5b60200260200101518583815181106118205761181f614db7565b5b6020026020010151610ada565b8282815181106118405761183f614db7565b5b6020026020010181815250508061185690614de6565b90506117e6565b508091505092915050565b611870612409565b80600f60006101000a81548173ffffffffffffffffffffffffffffffffffffffff021916908373ffffffffffffffffffffffffffffffffffffffff16021790555050565b600e81815481106118c457600080fd5b906000526020600020016000915090505481565b60105481565b6118e6612409565b6118f06000612b47565b565b7f000000000000000000000000000000000000000000000000000000000000000081565b82601360006101000a81548173ffffffffffffffffffffffffffffffffffffffff021916908373ffffffffffffffffffffffffffffffffffffffff1602179055508160148190555080601560006101000a81548173ffffffffffffffffffffffffffffffffffffffff021916908373ffffffffffffffffffffffffffffffffffffffff160217905550505050565b6000486012546119b49190614b27565b905090565b60125481565b6000600882815481106119d5576119d4614db7565b5b9060005260206000200160009054906101000a900473ffffffffffffffffffffffffffffffffffffffff169050919050565b6000600360009054906101000a900473ffffffffffffffffffffffffffffffffffffffff16905090565b600080600080600080600b60009054906101000a900473ffffffffffffffffffffffffffffffffffffffff1673ffffffffffffffffffffffffffffffffffffffff1663feaf968c6040518163ffffffff1660e01b815260040160a06040518083038186803b158015611aa257600080fd5b505afa158015611ab6573d6000803e3d6000fd5b505050506040513d601f19601f82011682018060405250810190611ada9190614ebc565b94509450945094509450836af8277896582678ac000000611afb9190614f37565b9550505050505090565b600d8054611b1290614764565b80601f0160208091040260200160405190810160405280929190818152602001828054611b3e90614764565b8015611b8b5780601f10611b6057610100808354040283529160200191611b8b565b820191906000526020600020905b815481529060010190602001808311611b6e57829003601f168201915b505050505081565b6000600760008373ffffffffffffffffffffffffffffffffffffffff1673ffffffffffffffffffffffffffffffffffffffff168152602001908152602001600020549050919050565b60166020528060005260406000206000915090508060000154908060010160009054906101000a900473ffffffffffffffffffffffffffffffffffffffff16908060010160149054906101000a900460ff16905083565b611c45611c3e610ad2565b8383612c0d565b5050565b601360009054906101000a900473ffffffffffffffffffffffffffffffffffffffff1681565b600080611c7a6121dc565b47611c8591906147c5565b9050611c9a8382611c9586611b93565b612d7a565b915050919050565b600048601254611cb29190614b27565b341015611cf4576040517f08c379a0000000000000000000000000000000000000000000000000000000008152600401611ceb90614fed565b60405180910390fd5b6000611d01336001610ada565b11611d41576040517f08c379a0000000000000000000000000000000000000000000000000000000008152600401611d3890615059565b60405180910390fd5b601560009054906101000a900473ffffffffffffffffffffffffffffffffffffffff1673ffffffffffffffffffffffffffffffffffffffff166108fc349081150290604051600060405180830381858888f19350505050158015611da9573d6000803e3d6000fd5b507f000000000000000000000000000000000000000000000000000000000000000073ffffffffffffffffffffffffffffffffffffffff16636e6be03f601360009054906101000a900473ffffffffffffffffffffffffffffffffffffffff1660145430601560009054906101000a900473ffffffffffffffffffffffffffffffffffffffff1630633718d90a60e01b7f31730000000000000000000000000000000000000000000000000000000000007f5f6d696e436f6e6669726d6174696f6e730000000000000000000000000000007f3700000000000000000000000000000000000000000000000000000000000000604051602001611eae93929190615079565b6040516020818303038152906040526040518863ffffffff1660e01b8152600401611edf9796959493929190615114565b602060405180830381600087803b158015611ef957600080fd5b505af1158015611f0d573d6000803e3d6000fd5b505050506040513d601f19601f82011682018060405250810190611f31919061519f565b9050336016600083815260200190815260200160002060010160006101000a81548173ffffffffffffffffffffffffffffffffffffffff021916908373ffffffffffffffffffffffffffffffffffffffff16021790555060016016600083815260200190815260200160002060010160146101000a81548160ff021916908315150217905550611fc333600180612de8565b3373ffffffffffffffffffffffffffffffffffffffff16817fe80b5dbf83cc1d5c59aa16fa0c3329e924e894108585c601fb0c5b18598707a360405160405180910390a390565b601560009054906101000a900473ffffffffffffffffffffffffffffffffffffffff1681565b60008061203c84612193565b8473ffffffffffffffffffffffffffffffffffffffff166370a08231306040518263ffffffff1660e01b8152600401612075919061448a565b60206040518083038186803b15801561208d57600080fd5b505afa1580156120a1573d6000803e3d6000fd5b505050506040513d601f19601f820116820180604052508101906120c591906151cc565b6120cf91906147c5565b90506120e583826120e087876114b4565b612d7a565b91505092915050565b6000600660008373ffffffffffffffffffffffffffffffffffffffff1673ffffffffffffffffffffffffffffffffffffffff168152602001908152602001600020549050919050565b61213f612409565b8060128190555050565b600f60009054906101000a900473ffffffffffffffffffffffffffffffffffffffff1681565b7f000000000000000000000000000000000000000000000000000000000000000081565b6000600960008373ffffffffffffffffffffffffffffffffffffffff1673ffffffffffffffffffffffffffffffffffffffff168152602001908152602001600020549050919050565b6000600554905090565b6000600160008473ffffffffffffffffffffffffffffffffffffffff1673ffffffffffffffffffffffffffffffffffffffff16815260200190815260200160002060008373ffffffffffffffffffffffffffffffffffffffff1673ffffffffffffffffffffffffffffffffffffffff16815260200190815260200160002060009054906101000a900460ff16905092915050565b612282610ad2565b73ffffffffffffffffffffffffffffffffffffffff168573ffffffffffffffffffffffffffffffffffffffff1614806122c857506122c7856122c2610ad2565b6121e6565b5b612307576040517f08c379a00000000000000000000000000000000000000000000000000000000081526004016122fe90614b07565b60405180910390fd5b612314858585858561302f565b5050505050565b612323612409565b600073ffffffffffffffffffffffffffffffffffffffff168173ffffffffffffffffffffffffffffffffffffffff161415612393576040517f08c379a000000000000000000000000000000000000000000000000000000000815260040161238a9061526b565b60405180910390fd5b61239c81612b47565b50565b60007f01ffc9a7000000000000000000000000000000000000000000000000000000007bffffffffffffffffffffffffffffffffffffffffffffffffffffffff1916827bffffffffffffffffffffffffffffffffffffffffffffffffffffffff1916149050919050565b612411610ad2565b73ffffffffffffffffffffffffffffffffffffffff1661242f611a07565b73ffffffffffffffffffffffffffffffffffffffff1614612485576040517f08c379a000000000000000000000000000000000000000000000000000000000815260040161247c906152d7565b60405180910390fd5b565b600073ffffffffffffffffffffffffffffffffffffffff168473ffffffffffffffffffffffffffffffffffffffff1614156124f7576040517f08c379a00000000000000000000000000000000000000000000000000000000081526004016124ee90615369565b60405180910390fd5b6000612501610ad2565b9050600061250e856132cb565b9050600061251b856132cb565b905061252c83600089858589613345565b8460008088815260200190815260200160002060008973ffffffffffffffffffffffffffffffffffffffff1673ffffffffffffffffffffffffffffffffffffffff168152602001908152602001600020600082825461258b91906147c5565b925050819055508673ffffffffffffffffffffffffffffffffffffffff16600073ffffffffffffffffffffffffffffffffffffffff168473ffffffffffffffffffffffffffffffffffffffff167fc3d58168c5ae7397731d063d5bbf3d657854427343f4c083240f7aacaa2d0f628989604051612609929190615389565b60405180910390a46126208360008985858961334d565b61262f83600089898989613355565b50505050505050565b8047101561267b576040517f08c379a0000000000000000000000000000000000000000000000000000000008152600401612672906153fe565b60405180910390fd5b60008273ffffffffffffffffffffffffffffffffffffffff16826040516126a19061544f565b60006040518083038185875af1925050503d80600081146126de576040519150601f19603f3d011682016040523d82523d6000602084013e6126e3565b606091505b5050905080612727576040517f08c379a000000000000000000000000000000000000000000000000000000000815260040161271e906154d6565b60405180910390fd5b505050565b8151835114612770576040517f08c379a000000000000000000000000000000000000000000000000000000000815260040161276790615568565b60405180910390fd5b600073ffffffffffffffffffffffffffffffffffffffff168473ffffffffffffffffffffffffffffffffffffffff1614156127e0576040517f08c379a00000000000000000000000000000000000000000000000000000000081526004016127d7906155fa565b60405180910390fd5b60006127ea610ad2565b90506127fa818787878787613345565b60005b84518110156129ab57600085828151811061281b5761281a614db7565b5b60200260200101519050600085838151811061283a57612839614db7565b5b60200260200101519050600080600084815260200190815260200160002060008b73ffffffffffffffffffffffffffffffffffffffff1673ffffffffffffffffffffffffffffffffffffffff168152602001908152602001600020549050818110156128db576040517f08c379a00000000000000000000000000000000000000000000000000000000081526004016128d29061568c565b60405180910390fd5b81810360008085815260200190815260200160002060008c73ffffffffffffffffffffffffffffffffffffffff1673ffffffffffffffffffffffffffffffffffffffff168152602001908152602001600020819055508160008085815260200190815260200160002060008b73ffffffffffffffffffffffffffffffffffffffff1673ffffffffffffffffffffffffffffffffffffffff168152602001908152602001600020600082825461299091906147c5565b92505081905550505050806129a490614de6565b90506127fd565b508473ffffffffffffffffffffffffffffffffffffffff168673ffffffffffffffffffffffffffffffffffffffff168273ffffffffffffffffffffffffffffffffffffffff167f4a39dc06d4c0dbc64b70af90fd698a233a518aa5d07e595d983b8c0526c8f7fb8787604051612a229291906156ac565b60405180910390a4612a3881878787878761334d565b612a4681878787878761353c565b505050505050565b600080600190506000600190505b600e805490508111612ab957600e8181548110612a7c57612a7b614db7565b5b90600052602060002001548411612a97578192505050612abc565b600b82612aa491906147c5565b91508080612ab190614de6565b915050612a5c565b50505b919050565b612b428363a9059cbb60e01b8484604051602401612ae0929190613a12565b604051602081830303815290604052907bffffffffffffffffffffffffffffffffffffffffffffffffffffffff19166020820180517bffffffffffffffffffffffffffffffffffffffffffffffffffffffff8381831617835250505050613723565b505050565b6000600360009054906101000a900473ffffffffffffffffffffffffffffffffffffffff16905081600360006101000a81548173ffffffffffffffffffffffffffffffffffffffff021916908373ffffffffffffffffffffffffffffffffffffffff1602179055508173ffffffffffffffffffffffffffffffffffffffff168173ffffffffffffffffffffffffffffffffffffffff167f8be0079c531659141344cd1fd0a4f28419497f9722a3daafe3b4186f6b6457e060405160405180910390a35050565b8173ffffffffffffffffffffffffffffffffffffffff168373ffffffffffffffffffffffffffffffffffffffff161415612c7c576040517f08c379a0000000000000000000000000000000000000000000000000000000008152600401612c7390615755565b60405180910390fd5b80600160008573ffffffffffffffffffffffffffffffffffffffff1673ffffffffffffffffffffffffffffffffffffffff16815260200190815260200160002060008473ffffffffffffffffffffffffffffffffffffffff1673ffffffffffffffffffffffffffffffffffffffff16815260200190815260200160002060006101000a81548160ff0219169083151502179055508173ffffffffffffffffffffffffffffffffffffffff168373ffffffffffffffffffffffffffffffffffffffff167f17307eab39ab6107e8899845ad3d59bd9653f200f220920489ca2b5937696c3183604051612d6d9190613ba2565b60405180910390a3505050565b600081600454600660008773ffffffffffffffffffffffffffffffffffffffff1673ffffffffffffffffffffffffffffffffffffffff1681526020019081526020016000205485612dcb9190614b27565b612dd59190615775565b612ddf91906148f3565b90509392505050565b600073ffffffffffffffffffffffffffffffffffffffff168373ffffffffffffffffffffffffffffffffffffffff161415612e58576040517f08c379a0000000000000000000000000000000000000000000000000000000008152600401612e4f90615818565b60405180910390fd5b6000612e62610ad2565b90506000612e6f846132cb565b90506000612e7c846132cb565b9050612e9c83876000858560405180602001604052806000815250613345565b600080600087815260200190815260200160002060008873ffffffffffffffffffffffffffffffffffffffff1673ffffffffffffffffffffffffffffffffffffffff16815260200190815260200160002054905084811015612f33576040517f08c379a0000000000000000000000000000000000000000000000000000000008152600401612f2a906158aa565b60405180910390fd5b84810360008088815260200190815260200160002060008973ffffffffffffffffffffffffffffffffffffffff1673ffffffffffffffffffffffffffffffffffffffff16815260200190815260200160002081905550600073ffffffffffffffffffffffffffffffffffffffff168773ffffffffffffffffffffffffffffffffffffffff168573ffffffffffffffffffffffffffffffffffffffff167fc3d58168c5ae7397731d063d5bbf3d657854427343f4c083240f7aacaa2d0f628989604051613000929190615389565b60405180910390a46130268488600086866040518060200160405280600081525061334d565b50505050505050565b600073ffffffffffffffffffffffffffffffffffffffff168473ffffffffffffffffffffffffffffffffffffffff16141561309f576040517f08c379a0000000000000000000000000000000000000000000000000000000008152600401613096906155fa565b60405180910390fd5b60006130a9610ad2565b905060006130b6856132cb565b905060006130c3856132cb565b90506130d3838989858589613345565b600080600088815260200190815260200160002060008a73ffffffffffffffffffffffffffffffffffffffff1673ffffffffffffffffffffffffffffffffffffffff1681526020019081526020016000205490508581101561316a576040517f08c379a00000000000000000000000000000000000000000000000000000000081526004016131619061568c565b60405180910390fd5b85810360008089815260200190815260200160002060008b73ffffffffffffffffffffffffffffffffffffffff1673ffffffffffffffffffffffffffffffffffffffff168152602001908152602001600020819055508560008089815260200190815260200160002060008a73ffffffffffffffffffffffffffffffffffffffff1673ffffffffffffffffffffffffffffffffffffffff168152602001908152602001600020600082825461321f91906147c5565b925050819055508773ffffffffffffffffffffffffffffffffffffffff168973ffffffffffffffffffffffffffffffffffffffff168573ffffffffffffffffffffffffffffffffffffffff167fc3d58168c5ae7397731d063d5bbf3d657854427343f4c083240f7aacaa2d0f628a8a60405161329c929190615389565b60405180910390a46132b2848a8a86868a61334d565b6132c0848a8a8a8a8a613355565b505050505050505050565b60606000600167ffffffffffffffff8111156132ea576132e9613d49565b5b6040519080825280602002602001820160405280156133185781602001602082028036833780820191505090505b50905082816000815181106133305761332f614db7565b5b60200260200101818152505080915050919050565b505050505050565b505050505050565b6133748473ffffffffffffffffffffffffffffffffffffffff166137ea565b15613534578373ffffffffffffffffffffffffffffffffffffffff1663f23a6e6187878686866040518663ffffffff1660e01b81526004016133ba9594939291906158ca565b602060405180830381600087803b1580156133d457600080fd5b505af192505050801561340557506040513d601f19601f820116820180604052508101906134029190615939565b60015b6134ab57613411615973565b806308c379a0141561346e5750613426615995565b806134315750613470565b806040517f08c379a00000000000000000000000000000000000000000000000000000000081526004016134659190613c56565b60405180910390fd5b505b6040517f08c379a00000000000000000000000000000000000000000000000000000000081526004016134a290615a9d565b60405180910390fd5b63f23a6e6160e01b7bffffffffffffffffffffffffffffffffffffffffffffffffffffffff1916817bffffffffffffffffffffffffffffffffffffffffffffffffffffffff191614613532576040517f08c379a000000000000000000000000000000000000000000000000000000000815260040161352990615b2f565b60405180910390fd5b505b505050505050565b61355b8473ffffffffffffffffffffffffffffffffffffffff166137ea565b1561371b578373ffffffffffffffffffffffffffffffffffffffff1663bc197c8187878686866040518663ffffffff1660e01b81526004016135a1959493929190615b4f565b602060405180830381600087803b1580156135bb57600080fd5b505af19250505080156135ec57506040513d601f19601f820116820180604052508101906135e99190615939565b60015b613692576135f8615973565b806308c379a01415613655575061360d615995565b806136185750613657565b806040517f08c379a000000000000000000000000000000000000000000000000000000000815260040161364c9190613c56565b60405180910390fd5b505b6040517f08c379a000000000000000000000000000000000000000000000000000000000815260040161368990615a9d565b60405180910390fd5b63bc197c8160e01b7bffffffffffffffffffffffffffffffffffffffffffffffffffffffff1916817bffffffffffffffffffffffffffffffffffffffffffffffffffffffff191614613719576040517f08c379a000000000000000000000000000000000000000000000000000000000815260040161371090615b2f565b60405180910390fd5b505b505050505050565b6000613785826040518060400160405280602081526020017f5361666545524332303a206c6f772d6c6576656c2063616c6c206661696c65648152508573ffffffffffffffffffffffffffffffffffffffff1661380d9092919063ffffffff16565b90506000815111156137e557808060200190518101906137a59190615bcc565b6137e4576040517f08c379a00000000000000000000000000000000000000000000000000000000081526004016137db90615c6b565b60405180910390fd5b5b505050565b6000808273ffffffffffffffffffffffffffffffffffffffff163b119050919050565b606061381c8484600085613825565b90509392505050565b60608247101561386a576040517f08c379a000000000000000000000000000000000000000000000000000000000815260040161386190615cfd565b60405180910390fd5b6000808673ffffffffffffffffffffffffffffffffffffffff1685876040516138939190615d4e565b60006040518083038185875af1925050503d80600081146138d0576040519150601f19603f3d011682016040523d82523d6000602084013e6138d5565b606091505b50915091506138e6878383876138f2565b92505050949350505050565b606083156139555760008351141561394d5761390d856137ea565b61394c576040517f08c379a000000000000000000000000000000000000000000000000000000000815260040161394390615db1565b60405180910390fd5b5b829050613960565b61395f8383613968565b5b949350505050565b60008251111561397b5781518083602001fd5b806040517f08c379a00000000000000000000000000000000000000000000000000000000081526004016139af9190613c56565b60405180910390fd5b600073ffffffffffffffffffffffffffffffffffffffff82169050919050565b60006139e3826139b8565b9050919050565b6139f3816139d8565b82525050565b6000819050919050565b613a0c816139f9565b82525050565b6000604082019050613a2760008301856139ea565b613a346020830184613a03565b9392505050565b6000604051905090565b600080fd5b600080fd5b613a58816139d8565b8114613a6357600080fd5b50565b600081359050613a7581613a4f565b92915050565b613a84816139f9565b8114613a8f57600080fd5b50565b600081359050613aa181613a7b565b92915050565b60008060408385031215613abe57613abd613a45565b5b6000613acc85828601613a66565b9250506020613add85828601613a92565b9150509250929050565b6000602082019050613afc6000830184613a03565b92915050565b60007fffffffff0000000000000000000000000000000000000000000000000000000082169050919050565b613b3781613b02565b8114613b4257600080fd5b50565b600081359050613b5481613b2e565b92915050565b600060208284031215613b7057613b6f613a45565b5b6000613b7e84828501613b45565b91505092915050565b60008115159050919050565b613b9c81613b87565b82525050565b6000602082019050613bb76000830184613b93565b92915050565b600081519050919050565b600082825260208201905092915050565b60005b83811015613bf7578082015181840152602081019050613bdc565b83811115613c06576000848401525b50505050565b6000601f19601f8301169050919050565b6000613c2882613bbd565b613c328185613bc8565b9350613c42818560208601613bd9565b613c4b81613c0c565b840191505092915050565b60006020820190508181036000830152613c708184613c1d565b905092915050565b6000819050919050565b613c8b81613c78565b82525050565b6000602082019050613ca66000830184613c82565b92915050565b600060208284031215613cc257613cc1613a45565b5b6000613cd084828501613a92565b91505092915050565b6000613ce4826139b8565b9050919050565b613cf481613cd9565b8114613cff57600080fd5b50565b600081359050613d1181613ceb565b92915050565b600060208284031215613d2d57613d2c613a45565b5b6000613d3b84828501613d02565b91505092915050565b600080fd5b7f4e487b7100000000000000000000000000000000000000000000000000000000600052604160045260246000fd5b613d8182613c0c565b810181811067ffffffffffffffff82111715613da057613d9f613d49565b5b80604052505050565b6000613db3613a3b565b9050613dbf8282613d78565b919050565b600067ffffffffffffffff821115613ddf57613dde613d49565b5b602082029050602081019050919050565b600080fd5b6000613e08613e0384613dc4565b613da9565b90508083825260208201905060208402830185811115613e2b57613e2a613df0565b5b835b81811015613e545780613e408882613a92565b845260208401935050602081019050613e2d565b5050509392505050565b600082601f830112613e7357613e72613d44565b5b8135613e83848260208601613df5565b91505092915050565b600080fd5b600067ffffffffffffffff821115613eac57613eab613d49565b5b613eb582613c0c565b9050602081019050919050565b82818337600083830152505050565b6000613ee4613edf84613e91565b613da9565b905082815260208101848484011115613f0057613eff613e8c565b5b613f0b848285613ec2565b509392505050565b600082601f830112613f2857613f27613d44565b5b8135613f38848260208601613ed1565b91505092915050565b600080600080600060a08688031215613f5d57613f5c613a45565b5b6000613f6b88828901613a66565b9550506020613f7c88828901613a66565b945050604086013567ffffffffffffffff811115613f9d57613f9c613a4a565b5b613fa988828901613e5e565b935050606086013567ffffffffffffffff811115613fca57613fc9613a4a565b5b613fd688828901613e5e565b925050608086013567ffffffffffffffff811115613ff757613ff6613a4a565b5b61400388828901613f13565b9150509295509295909350565b61401981613c78565b811461402457600080fd5b50565b60008135905061403681614010565b92915050565b600080fd5b60008083601f84011261405757614056613d44565b5b8235905067ffffffffffffffff8111156140745761407361403c565b5b6020830191508360018202830111156140905761408f613df0565b5b9250929050565b6000806000604084860312156140b0576140af613a45565b5b60006140be86828701614027565b935050602084013567ffffffffffffffff8111156140df576140de613a4a565b5b6140eb86828701614041565b92509250509250925092565b6000614102826139d8565b9050919050565b614112816140f7565b811461411d57600080fd5b50565b60008135905061412f81614109565b92915050565b6000806040838503121561414c5761414b613a45565b5b600061415a85828601614120565b925050602061416b85828601613a66565b9150509250929050565b600067ffffffffffffffff8211156141905761418f613d49565b5b602082029050602081019050919050565b60006141b46141af84614175565b613da9565b905080838252602082019050602084028301858111156141d7576141d6613df0565b5b835b8181101561420057806141ec8882613a66565b8452602084019350506020810190506141d9565b5050509392505050565b600082601f83011261421f5761421e613d44565b5b813561422f8482602086016141a1565b91505092915050565b6000806040838503121561424f5761424e613a45565b5b600083013567ffffffffffffffff81111561426d5761426c613a4a565b5b6142798582860161420a565b925050602083013567ffffffffffffffff81111561429a57614299613a4a565b5b6142a685828601613e5e565b9150509250929050565b600081519050919050565b600082825260208201905092915050565b6000819050602082019050919050565b6142e5816139f9565b82525050565b60006142f783836142dc565b60208301905092915050565b6000602082019050919050565b600061431b826142b0565b61432581856142bb565b9350614330836142cc565b8060005b8381101561436157815161434888826142eb565b975061435383614303565b925050600181019050614334565b5085935050505092915050565b600060208201905081810360008301526143888184614310565b905092915050565b6000602082840312156143a6576143a5613a45565b5b60006143b484828501613a66565b91505092915050565b6000819050919050565b60006143e26143dd6143d8846139b8565b6143bd565b6139b8565b9050919050565b60006143f4826143c7565b9050919050565b6000614406826143e9565b9050919050565b614416816143fb565b82525050565b6000602082019050614431600083018461440d565b92915050565b6000806000606084860312156144505761444f613a45565b5b600061445e86828701613a66565b935050602061446f86828701614027565b925050604061448086828701613d02565b9150509250925092565b600060208201905061449f60008301846139ea565b92915050565b6000602082840312156144bb576144ba613a45565b5b60006144c984828501614027565b91505092915050565b60006060820190506144e76000830186613a03565b6144f460208301856139ea565b6145016040830184613b93565b949350505050565b61451281613b87565b811461451d57600080fd5b50565b60008135905061452f81614509565b92915050565b6000806040838503121561454c5761454b613a45565b5b600061455a85828601613a66565b925050602061456b85828601614520565b9150509250929050565b61457e81613cd9565b82525050565b60006020820190506145996000830184614575565b92915050565b6000602082840312156145b5576145b4613a45565b5b60006145c384828501614120565b91505092915050565b600080604083850312156145e3576145e2613a45565b5b60006145f185828601613a66565b925050602061460285828601613a66565b9150509250929050565b600080600080600060a0868803121561462857614627613a45565b5b600061463688828901613a66565b955050602061464788828901613a66565b945050604061465888828901613a92565b935050606061466988828901613a92565b925050608086013567ffffffffffffffff81111561468a57614689613a4a565b5b61469688828901613f13565b9150509295509295909350565b7f455243313135353a2061646472657373207a65726f206973206e6f742061207660008201527f616c6964206f776e657200000000000000000000000000000000000000000000602082015250565b60006146ff602a83613bc8565b915061470a826146a3565b604082019050919050565b6000602082019050818103600083015261472e816146f2565b9050919050565b7f4e487b7100000000000000000000000000000000000000000000000000000000600052602260045260246000fd5b6000600282049050600182168061477c57607f821691505b602082108114156147905761478f614735565b5b50919050565b7f4e487b7100000000000000000000000000000000000000000000000000000000600052601160045260246000fd5b60006147d0826139f9565b91506147db836139f9565b9250827fffffffffffffffffffffffffffffffffffffffffffffffffffffffffffffffff038211156148105761480f614796565b5b828201905092915050565b7f546865726520617265206e6f7420656e6f756768207469636b65747300000000600082015250565b6000614851601c83613bc8565b915061485c8261481b565b602082019050919050565b6000602082019050818103600083015261488081614844565b9050919050565b7f546865726520617265206e6f7420656e6f756768207265776172647300000000600082015250565b60006148bd601c83613bc8565b91506148c882614887565b602082019050919050565b600060208201905081810360008301526148ec816148b0565b9050919050565b60006148fe826139f9565b9150614909836139f9565b92508282101561491c5761491b614796565b5b828203905092915050565b7f5061796d656e7453706c69747465723a206163636f756e7420686173206e6f2060008201527f7368617265730000000000000000000000000000000000000000000000000000602082015250565b6000614983602683613bc8565b915061498e82614927565b604082019050919050565b600060208201905081810360008301526149b281614976565b9050919050565b7f5061796d656e7453706c69747465723a206163636f756e74206973206e6f742060008201527f647565207061796d656e74000000000000000000000000000000000000000000602082015250565b6000614a15602b83613bc8565b9150614a20826149b9565b604082019050919050565b60006020820190508181036000830152614a4481614a08565b9050919050565b6000614a56826143e9565b9050919050565b614a6681614a4b565b82525050565b6000604082019050614a816000830185614a5d565b614a8e6020830184613a03565b9392505050565b7f455243313135353a2063616c6c6572206973206e6f7420746f6b656e206f776e60008201527f6572206f7220617070726f766564000000000000000000000000000000000000602082015250565b6000614af1602e83613bc8565b9150614afc82614a95565b604082019050919050565b60006020820190508181036000830152614b2081614ae4565b9050919050565b6000614b32826139f9565b9150614b3d836139f9565b9250817fffffffffffffffffffffffffffffffffffffffffffffffffffffffffffffffff0483118215151615614b7657614b75614796565b5b828202905092915050565b7f4e6f7420656e6f756768206d6f6e657900000000000000000000000000000000600082015250565b6000614bb7601083613bc8565b9150614bc282614b81565b602082019050919050565b60006020820190508181036000830152614be681614baa565b9050919050565b7f43616c6c6572206e6f74204169726e6f64652052525000000000000000000000600082015250565b6000614c23601683613bc8565b9150614c2e82614bed565b602082019050919050565b60006020820190508181036000830152614c5281614c16565b9050919050565b7f52657175657374204944206e6f74206b6e6f776e000000000000000000000000600082015250565b6000614c8f601483613bc8565b9150614c9a82614c59565b602082019050919050565b60006020820190508181036000830152614cbe81614c82565b9050919050565b7f4e487b7100000000000000000000000000000000000000000000000000000000600052601260045260246000fd5b6000614cff826139f9565b9150614d0a836139f9565b925082614d1a57614d19614cc5565b5b828206905092915050565b7f455243313135353a206163636f756e747320616e6420696473206c656e67746860008201527f206d69736d617463680000000000000000000000000000000000000000000000602082015250565b6000614d81602983613bc8565b9150614d8c82614d25565b604082019050919050565b60006020820190508181036000830152614db081614d74565b9050919050565b7f4e487b7100000000000000000000000000000000000000000000000000000000600052603260045260246000fd5b6000614df1826139f9565b91507fffffffffffffffffffffffffffffffffffffffffffffffffffffffffffffffff821415614e2457614e23614796565b5b600182019050919050565b600069ffffffffffffffffffff82169050919050565b614e4e81614e2f565b8114614e5957600080fd5b50565b600081519050614e6b81614e45565b92915050565b6000819050919050565b614e8481614e71565b8114614e8f57600080fd5b50565b600081519050614ea181614e7b565b92915050565b600081519050614eb681613a7b565b92915050565b600080600080600060a08688031215614ed857614ed7613a45565b5b6000614ee688828901614e5c565b9550506020614ef788828901614e92565b9450506040614f0888828901614ea7565b9350506060614f1988828901614ea7565b9250506080614f2a88828901614e5c565b9150509295509295909350565b6000614f4282614e71565b9150614f4d83614e71565b925082614f5d57614f5c614cc5565b5b600160000383147f800000000000000000000000000000000000000000000000000000000000000083141615614f9657614f95614796565b5b828205905092915050565b7f4e6f7420656e6f75676820676173000000000000000000000000000000000000600082015250565b6000614fd7600e83613bc8565b9150614fe282614fa1565b602082019050919050565b6000602082019050818103600083015261500681614fca565b9050919050565b7f596f7520617265206e6f7420616e206f776e6572000000000000000000000000600082015250565b6000615043601483613bc8565b915061504e8261500d565b602082019050919050565b6000602082019050818103600083015261507281615036565b9050919050565b600060608201905061508e6000830186613c82565b61509b6020830185613c82565b6150a86040830184613c82565b949350505050565b6150b981613b02565b82525050565b600081519050919050565b600082825260208201905092915050565b60006150e6826150bf565b6150f081856150ca565b9350615100818560208601613bd9565b61510981613c0c565b840191505092915050565b600060e082019050615129600083018a6139ea565b6151366020830189613c82565b61514360408301886139ea565b6151506060830187614a5d565b61515d60808301866139ea565b61516a60a08301856150b0565b81810360c083015261517c81846150db565b905098975050505050505050565b60008151905061519981614010565b92915050565b6000602082840312156151b5576151b4613a45565b5b60006151c38482850161518a565b91505092915050565b6000602082840312156151e2576151e1613a45565b5b60006151f084828501614ea7565b91505092915050565b7f4f776e61626c653a206e6577206f776e657220697320746865207a65726f206160008201527f6464726573730000000000000000000000000000000000000000000000000000602082015250565b6000615255602683613bc8565b9150615260826151f9565b604082019050919050565b6000602082019050818103600083015261528481615248565b9050919050565b7f4f776e61626c653a2063616c6c6572206973206e6f7420746865206f776e6572600082015250565b60006152c1602083613bc8565b91506152cc8261528b565b602082019050919050565b600060208201905081810360008301526152f0816152b4565b9050919050565b7f455243313135353a206d696e7420746f20746865207a65726f2061646472657360008201527f7300000000000000000000000000000000000000000000000000000000000000602082015250565b6000615353602183613bc8565b915061535e826152f7565b604082019050919050565b6000602082019050818103600083015261538281615346565b9050919050565b600060408201905061539e6000830185613a03565b6153ab6020830184613a03565b9392505050565b7f416464726573733a20696e73756666696369656e742062616c616e6365000000600082015250565b60006153e8601d83613bc8565b91506153f3826153b2565b602082019050919050565b60006020820190508181036000830152615417816153db565b9050919050565b600081905092915050565b50565b600061543960008361541e565b915061544482615429565b600082019050919050565b600061545a8261542c565b9150819050919050565b7f416464726573733a20756e61626c6520746f2073656e642076616c75652c207260008201527f6563697069656e74206d61792068617665207265766572746564000000000000602082015250565b60006154c0603a83613bc8565b91506154cb82615464565b604082019050919050565b600060208201905081810360008301526154ef816154b3565b9050919050565b7f455243313135353a2069647320616e6420616d6f756e7473206c656e6774682060008201527f6d69736d61746368000000000000000000000000000000000000000000000000602082015250565b6000615552602883613bc8565b915061555d826154f6565b604082019050919050565b6000602082019050818103600083015261558181615545565b9050919050565b7f455243313135353a207472616e7366657220746f20746865207a65726f20616460008201527f6472657373000000000000000000000000000000000000000000000000000000602082015250565b60006155e4602583613bc8565b91506155ef82615588565b604082019050919050565b60006020820190508181036000830152615613816155d7565b9050919050565b7f455243313135353a20696e73756666696369656e742062616c616e636520666f60008201527f72207472616e7366657200000000000000000000000000000000000000000000602082015250565b6000615676602a83613bc8565b91506156818261561a565b604082019050919050565b600060208201905081810360008301526156a581615669565b9050919050565b600060408201905081810360008301526156c68185614310565b905081810360208301526156da8184614310565b90509392505050565b7f455243313135353a2073657474696e6720617070726f76616c2073746174757360008201527f20666f722073656c660000000000000000000000000000000000000000000000602082015250565b600061573f602983613bc8565b915061574a826156e3565b604082019050919050565b6000602082019050818103600083015261576e81615732565b9050919050565b6000615780826139f9565b915061578b836139f9565b92508261579b5761579a614cc5565b5b828204905092915050565b7f455243313135353a206275726e2066726f6d20746865207a65726f206164647260008201527f6573730000000000000000000000000000000000000000000000000000000000602082015250565b6000615802602383613bc8565b915061580d826157a6565b604082019050919050565b60006020820190508181036000830152615831816157f5565b9050919050565b7f455243313135353a206275726e20616d6f756e7420657863656564732062616c60008201527f616e636500000000000000000000000000000000000000000000000000000000602082015250565b6000615894602483613bc8565b915061589f82615838565b604082019050919050565b600060208201905081810360008301526158c381615887565b9050919050565b600060a0820190506158df60008301886139ea565b6158ec60208301876139ea565b6158f96040830186613a03565b6159066060830185613a03565b818103608083015261591881846150db565b90509695505050505050565b60008151905061593381613b2e565b92915050565b60006020828403121561594f5761594e613a45565b5b600061595d84828501615924565b91505092915050565b60008160e01c9050919050565b600060033d11156159925760046000803e61598f600051615966565b90505b90565b600060443d10156159a557615a28565b6159ad613a3b565b60043d036004823e80513d602482011167ffffffffffffffff821117156159d5575050615a28565b808201805167ffffffffffffffff8111156159f35750505050615a28565b80602083010160043d038501811115615a10575050505050615a28565b615a1f82602001850186613d78565b82955050505050505b90565b7f455243313135353a207472616e7366657220746f206e6f6e2d4552433131353560008201527f526563656976657220696d706c656d656e746572000000000000000000000000602082015250565b6000615a87603483613bc8565b9150615a9282615a2b565b604082019050919050565b60006020820190508181036000830152615ab681615a7a565b9050919050565b7f455243313135353a204552433131353552656365697665722072656a6563746560008201527f6420746f6b656e73000000000000000000000000000000000000000000000000602082015250565b6000615b19602883613bc8565b9150615b2482615abd565b604082019050919050565b60006020820190508181036000830152615b4881615b0c565b9050919050565b600060a082019050615b6460008301886139ea565b615b7160208301876139ea565b8181036040830152615b838186614310565b90508181036060830152615b978185614310565b90508181036080830152615bab81846150db565b90509695505050505050565b600081519050615bc681614509565b92915050565b600060208284031215615be257615be1613a45565b5b6000615bf084828501615bb7565b91505092915050565b7f5361666545524332303a204552433230206f7065726174696f6e20646964206e60008201527f6f74207375636365656400000000000000000000000000000000000000000000602082015250565b6000615c55602a83613bc8565b9150615c6082615bf9565b604082019050919050565b60006020820190508181036000830152615c8481615c48565b9050919050565b7f416464726573733a20696e73756666696369656e742062616c616e636520666f60008201527f722063616c6c0000000000000000000000000000000000000000000000000000602082015250565b6000615ce7602683613bc8565b9150615cf282615c8b565b604082019050919050565b60006020820190508181036000830152615d1681615cda565b9050919050565b6000615d28826150bf565b615d32818561541e565b9350615d42818560208601613bd9565b80840191505092915050565b6000615d5a8284615d1d565b915081905092915050565b7f416464726573733a2063616c6c20746f206e6f6e2d636f6e7472616374000000600082015250565b6000615d9b601d83613bc8565b9150615da682615d65565b602082019050919050565b60006020820190508181036000830152615dca81615d8e565b905091905056fea2646970667358221220ed21323de8efb0c0cbe14c84000c6c4ccf99e062ba23ced1dc5e9fcfb781bbf164736f6c63430008090033",
  "linkReferences": {},
  "deployedLinkReferences": {}
}